:100000000C948C000C94B4000C94B4000C94D103A8
:100010000C94D1030C94D1030C94B4000C94B40050
:100020000C94B4000C94B4000C94B4000C94B40080
:100030000C94B4000C94B4000C94B4000C94B40070
:100040000C948C050C94B4000C949F030C947903CD
:100050000C94B4000C94B4000C94B4000C94B40050
:100060000C94B4000C94B400BC08CE08D108D80895
:10007000DF080D09140921092E093A093A093A093C
:100080003A093A093A093A093A093A093A093A0958
:100090003A093A093A093A093A093A093A093A0948
:1000A0003A093A093A093A09BC08C908CE08D10800
:1000B000D808DF08E608F30800090000000800027D
:1000C0000100000304070000000000000000000021
:1000D0000000230026002900000000002400270063
:1000E0002A0000000000250028002B00040404045E
:1000F00004040404020202020202030303030303D2
:1001000001020408102040800102040810200102AE
:1001100004081020190CB00B11241FBECFEFD8E03B
:10012000DEBFCDBF12E0A0E0B1E0EAEDF1E202C037
:1001300005900D92AE31B107D9F723E0AEE1B2E000
:1001400001C01D92A43DB207E1F710E0CBE8D0E07A
:1001500004C02197FE010E948010CA38D107C9F758
:100160000E94D6050C94E0100C940000CF92DF9210
:10017000EF92FF920F931F93CF93DF936C017A015D
:100180008B01C0E0D0E0CE15DF0581F0D8016D9184
:100190008D01D601ED91FC910190F081E02DC60119
:1001A0000995892B11F02196EECF7E01C701DF91D1
:1001B000CF911F910F91FF90EF90DF90CF90089516
:1001C000FC01538D448D252F30E0842F90E0821B5D
:1001D000930B541710F0CF96089501970895FC01E2
:1001E000918D828D981761F0828DDF01A80FB11D6E
:1001F0005D968C91928D9F5F9F73928F90E0089592
:100200008FEF9FEF0895FC01918D828D981731F04B
:10021000828DE80FF11D858D90E008958FEF9FEF9F
:100220000895FC01918D228D892F90E0805C9F4F75
:10023000821B91098F739927089582E692E00E94AC
:10024000110121E0892B09F420E0822F0895FC019F
:10025000848DDF01A80FB11DA35ABF4F2C91848D4F
:1002600090E001968F739927848FA689B7892C9384
:10027000A089B1898C91837080648C93938D848DD7
:10028000981306C00288F389E02D80818F7D8083DA
:100290000895EF92FF920F931F93CF93DF93EC019A
:1002A00081E0888F9B8D8C8D981305C0E889F98932
:1002B000808185FD26C0F62E0B8D10E00F5F1F4F4D
:1002C0000F731127E02E8C8DE8120CC00FB607FCBF
:1002D000FACFE889F989808185FFF5CFCE010E94A8
:1002E0002701F1CF8B8DFE01E80FF11DE35AFF4F7F
:1002F000F0829FB7F8940B8FEA89FB898081806236
:100300000AC09FB7F894EE89FF896083E889F9896C
:1003100080818370806480839FBF81E090E0DF9163
:10032000CF911F910F91FF90EF900895CF93DF939E
:10033000EC01888D8823C9F0EA89FB89808185FDDD
:1003400005C0A889B9898C9186FD0FC00FB607FC3E
:10035000F5CF808185FFF2CFA889B9898C9185FF7F
:10036000EDCFCE010E942701E7CFDF91CF91089515
:1003700080E090E0892B29F00E941D0181110C94EE
:10038000000008952091600230916102281739071A
:1003900071F490915E0280915F02981741F0E091B4
:1003A0005E02F0E0E25EFD4F808190E008958FEF05
:1003B0009FEF089508951F93CF93DF93DC015C9620
:1003C0008D919C915D97009739F421E030E0139670
:1003D0003C932E9312973BC05196ED91FC9152970E
:1003E00050962C915097322F30951FB75E964C91B6
:1003F0005E97742F727041FD6095F8944081772369
:1004000011F0422B01C043234083EC012197F1F707
:1004100048E0508160FF02C0522B01C0532350833B
:10042000EC012197F1F76695415099F78081772388
:1004300019F08323808302C0282B20831FBF5C9682
:100440008D919C915D970197F1F781E090E0DF91AC
:10045000CF911F9108952091600230916102281779
:10046000390771F480915F0220915E0290E0805C18
:100470009F4F821B910960E470E00E944A1008952A
:1004800080E090E008952091600230916102281789
:100490003907B9F490915E0280915F02981789F054
:1004A000E0915E02F0E0E25EFD4F808120915E020D
:1004B00030E02F5F3F4F2F73332720935E0290E091
:1004C00008958FEF9FEF0895089580E090E00895DC
:1004D000CF93DF93EC018A859B85AC85BD858E83A8
:1004E0009F83A887B9870E9480056A837B838C835A
:1004F0009D8381E089838883DF91CF910895CF9395
:10050000DF93EC018E819F81A885B9858A839B83C7
:10051000AC83BD830E9480056A877B878C879D871B
:1005200081E089838883DF91CF9108952F923F9254
:100530004F925F926F927F928F929F92AF92BF92F3
:10054000CF92DF92EF92FF920F931F93CF93DF939F
:10055000D82FC92F8B010E94C20D24E630E040E065
:1005600050E00E945E1049015A019B01AC0160E815
:1005700076E988E990E00E943A106B017C01F8016D
:1005800091828082ED2FFC2F2191822F022E000C70
:10059000990BC0970A97C0F32E3239F51F0180E8F6
:1005A000882E86E9982E88E9A82EB12C9AE0492E4B
:1005B000512C612C712CF101C1911F010C2E000CEA
:1005C000DD0BE097CA30D10580F4C501B401A30169
:1005D00092010E945E1049015A01DE010E949110B1
:1005E000C60ED71EE81EF91EE6CFA5E0B0E0A701B3
:1005F00096010E9486106F5F7F4F8F4F9F4F23E0C1
:1006000030E040E050E00E945E10F8012283338326
:10061000448355831682DF91CF911F910F91FF90F4
:10062000EF90DF90CF90BF90AF909F908F907F9092
:100630006F905F904F903F902F900895FF920F938F
:100640001F93CF93DF93EC01F8802DE2F21201C0EB
:100650002196CE010E94C20D9B01AC01A4E6B0E040
:100660000E948610FE014991242F042E000C330BAA
:10067000205331092A303105A8F34E3241F521814A
:10068000022E000C330B205331092A303105F8F4C7
:100690004AE0429F8001439F100D1124012E000C5F
:1006A000220B330B600F711F821F931F0281002EDC
:1006B000000C110B005311090A30110540F4012EF2
:1006C000000C220B330B600F711F821F931F2DE252
:1006D000F21207C090958095709561957F4F8F4F6E
:1006E0009F4FDF91CF911F910F91FF9008950E942E
:1006F000BC101F920F920FB60F9211242F933F93AD
:100700004F935F936F937F938F939F93AF93BF9319
:10071000EF93FF9382E692E00E942701FF91EF9111
:10072000BF91AF919F918F917F916F915F914F9109
:100730003F912F910F900FBE0F901F9018951F9211
:100740000F920FB60F9211242F938F939F93EF93D5
:10075000FF93E0917202F09173028081E091780240
:10076000F091790282FD12C0908180917B028F5FAF
:100770008F7320917C02821751F0E0917B02F0E0B0
:10078000EE59FD4F958F80937B0201C08081FF91D0
:10079000EF919F918F912F910F900FBE0F901F900F
:1007A00018951F920F920FB60F9211242F933F931B
:1007B0004F935F936F937F938F939F93AF93BF9369
:1007C000EF93FF93E0916002F0916102309709F49A
:1007D00051C0968DA685B785858591FF04C09C91F3
:1007E000892329F447C09C91892309F043C0A38938
:1007F000B4899C918589809589238C938689978972
:100800000197F1F7608D718DA685B785558538E024
:1008100020E0CB010197F1F7822F90E09595879525
:10082000282F4C91452309F02068315091F7868D8F
:1008300081FD209580915F0290E001968F7399274A
:1008400030915E02381749F0A0915F02B0E0A25EDD
:10085000BD4F2C9380935F0203C0868D8160868F8D
:10086000828D938D0197F1F7A389B4899C91858935
:10087000892B8C93FF91EF91BF91AF919F918F91B5
:100880007F916F915F914F913F912F910F900FBE8C
:100890000F901F901895009769F0FC0101900020BF
:1008A000E9F73197AF01481B590BBC0182E692E092
:1008B0000C94B60080E090E00895CF93DF930E94FF
:1008C0004B04EC018AE491E00E944B048C0F9D1FC5
:1008D000DF91CF9108958F929F92AF92BF920F9325
:1008E0001F93CF93DF93CDB7DEB7A1970FB6F894E0
:1008F000DEBF0FBECDBF19A2423008F44AE08E0120
:100900000F5D1F4F842E912CA12CB12CA5019401B9
:100910000E945E10E62FB901CA0101501109EA30A8
:1009200014F4E05D01C0E95CD801EC93232B242B87
:10093000252B61F7C8010E944B04A1960FB6F894CD
:10094000DEBF0FBECDBFDF91CF911F910F91BF9042
:10095000AF909F908F9008950C944B048F929F922C
:10096000AF92BF92CF92DF92EF92FF920F931F93BD
:10097000CF93DF936B017C01142F9B01AC010E948C
:100980003510882319F082E192E027C04601570113
:10099000E894B7F82FEF3FEF4FE75FE7C501B401E9
:1009A0000E94351081110DC02FEF3FEF4FE75FE739
:1009B000C501B4010E946B0E18161CF486E192E08A
:1009C0000CC02FEF3FEF4FE75FE4C701B6010E9475
:1009D000C30F181684F48AE192E0DF91CF911F9142
:1009E0000F91FF90EF90DF90CF90BF90AF909F90CE
:1009F0008F900C944B042FEF3FEF4FE75FECC70154
:100A0000B6010E946B0E87FDE6CF20E030E0A90121
:100A1000C701B6010E946B0E87FF0BC06DE282E634
:100A200092E00E944901EC01F7FAF094F7F8F09493
:100A300002C0C0E0D0E000E060E070E080E09FE352
:100A4000101741F020E030E040E251E40E94700EC7
:100A50000F5FF6CFA70196010E94FF0D6B017C018D
:100A60000E94E20E4B015C014AE00E946B04C80F39
:100A7000D91F1123B9F1C501B4010E94110F9B01C7
:100A8000AC01C701B6010E94FE0D6B017C016EE254
:100A900082E692E00E944901C80FD91F20E030E0B1
:100AA00040E251E4C701B6010E94C80F4B015C014E
:100AB0000E94E20E6B01E12CF12C4AE0C701B60165
:100AC0000E946B04C80FD91FC701B6010E94110F05
:100AD0009B01AC01C501B4010E94FE0D6B017C01BC
:100AE0001150E1F6CE01DF91CF911F910F91FF9050
:100AF000EF90DF90CF90BF90AF909F908F90089530
:100B00002FB7F8946091D0037091D1038091D203F4
:100B10009091D3032FBF08951F920F920FB60F929B
:100B200011242F933F938F939F93AF93BF93809103
:100B3000D0039091D103A091D203B091D30330910F
:100B4000CF0323E0230F2D3720F40196A11DB11D03
:100B500005C026E8230F0296A11DB11D2093CF03E7
:100B60008093D0039093D103A093D203B093D30387
:100B70008091CB039091CC03A091CD03B091CE0393
:100B80000196A11DB11D8093CB039093CC03A0933C
:100B9000CD03B093CE03BF91AF919F918F913F91C1
:100BA0002F910F900FBE0F901F901895789484B5D9
:100BB000826084BD84B5816084BD85B5826085BD59
:100BC00085B5816085BD80916E00816080936E00E7
:100BD00010928100809181008260809381008091D9
:100BE000810081608093810080918000816080938A
:100BF00080008091B10084608093B1008091B0004A
:100C000081608093B00080917A00846080937A0044
:100C100080917A00826080937A0080917A0081606E
:100C200080937A0080917A00806880937A00109295
:100C3000C100E0917202F091730282E08083E09142
:100C40006E02F0916F021082E0917002F0917102D9
:100C50008FEC808310927A02E0917602F091770215
:100C600086E08083E0917402F0917502808180615A
:100C70008083E0917402F0917502808188608083A6
:100C8000E0917402F0917502808180688083E09128
:100C90007402F091750280818F7D808310921A0317
:100CA0001092190310921803109217031092160352
:100CB000109215038DE991E090931C0380931B0320
:100CC00090910B03963108F058C02DEB30E0309333
:100CD0001603209315032BE931E03093180320937A
:100CE00017032CE231E030931A032093190340914B
:100CF0006800983058F031E09E3008F430E021E090
:100D0000822F01C0880F3A95EAF701C084E0842B56
:100D100080936800983038F09E3040F0963148F06B
:100D200020E030E008C02DE630E005C02BE630E0E2
:100D300002C02CE630E03093130320931203983066
:100D400030F481E001C0880F9A95EAF70EC0292F90
:100D500030E09E3018F42850310902C02E5031097D
:100D600081E001C0880F2A95EAF7809314038091EF
:100D70001B0390911C030197F1F780911903909147
:100D80001A03892B49F1E0916002F091610222E09F
:100D9000EF3FF20709F1309739F0A389B4899C91AC
:100DA0008589809589238C9380911D038E7F809304
:100DB0001D0310925F0210925E028FEF92E09093FB
:100DC000610280936002E0911203F091130390811D
:100DD00080911403892B80832224239480E1882E20
:100DE00087E2982EA12CB12C94E6C92ED12CE12CAF
:100DF000F12C22E0322ED1E08FEF92E00E942B0204
:100E0000181619060CF0A9C48FEF92E00E94430255
:100E1000C82F8091BB039091BC03A091BD03B091FA
:100E2000BE030196A11DB11D8093BB039093BC032B
:100E3000A093BD03B093BE03C43209F460C2E09135
:100E4000B503C53234F4CA3071F0CD3009F064C254
:100E50000AC0CA3241F0CC3209F05EC28091A203CE
:100E60008C278093A203EF3008F035C2F0E0EC55F8
:100E7000FC4F10828091A303882309F41CC12091A8
:100E8000A4033FEB320F822F022E000C990B363059
:100E900010F4C79707C02156263018F487559109DA
:100EA00001C0C097282F2295207F3091A5034FEBDA
:100EB000430F832F032E000C990B463010F4C79775
:100EC00007C03156363018F48755910901C0C097D4
:100ED000820F9091A2038913DAC08091C703909189
:100EE000C803A091C903B091CA030196A11DB11D09
:100EF0008093C7039093C803A093C903B093CA0318
:100F00008091B603882399F08091BF039091C0032C
:100F1000A091C103B091C2030196A11DB11D8093A0
:100F2000BF039093C003A093C103B093C203109179
:100F3000B3031123B9F1113009F082C080E493E0CA
:100F40000E947F028EE493E00E947F028091B603AC
:100F5000882309F475C087E0EEE2F3E0A0E2B3E095
:100F600001900D928A95E1F787E0E5E3F3E0A7E2CF
:100F7000B3E001900D928A95E1F70E94800560939D
:100F80003C0370933D0380933E0390933F03109383
:100F90001F0310931E038CE593E00E9468028AE60B
:100FA00093E04CC08EE493E00E947F028091B603F0
:100FB000882321F187E0EEE2F3E0A0E2B3E00190C4
:100FC0000D928A95E1F787E0E5E3F3E0A7E2B3E06D
:100FD00001900D928A95E1F70E94800560933C0391
:100FE00070933D0380933E0390933F03D0931F0380
:100FF000D0931E0388E793E00E94680280919003DB
:1010000090919103A0919203B091930380938C03EC
:1010100090938D03A0938E03B0938F030E9480055D
:10102000609388037093890380938A0390938B0362
:10103000D0938703D093860384E993E00E946802EB
:101040000091B9031091BA030115110509F445C1C6
:10105000E091B903F091BA0366A177A1F80186A1E6
:1010600097A10E94C110892B09F037C1B801C801AE
:1010700040960E94CA100E948005F80160A371A3E7
:1010800082A393A325A224A202A513A5DDCF80915C
:10109000C3039091C403A091C503B091C603019608
:1010A000A11DB11D8093C3039093C403A093C503F6
:1010B000B093C60310C19091B403911145C064E28E
:1010C00071E084EA93E00E94C110892B41F06AE24A
:1010D00071E084EA93E00E94C110892B19F4D09347
:1010E000B30315C060E371E084EA93E00E94C1108D
:1010F000892B41F066E371E084EA93E00E94C1101D
:10110000892B19F41092B30302C03092B30380917B
:10111000B7039091B8039093BA038093B9030091F9
:10112000B9031091BA030115110509F4D4C064EA9A
:1011300073E0F80186A197A10E94C11097FFC5C076
:10114000F80182A593A5E7CFE091B303E23009F45B
:1011500091C08091A403882309F48CC020E2E29F0F
:10116000F0011124E92B3197E932F10508F082C032
:10117000EC5CFF4F0C94801084EA93E00E941E0305
:1011800060935403709355038093560390935703D1
:1011900071C091E0813409F043C043C06EE273E056
:1011A00009C091E0833509F090E09093340362C068
:1011B00065E373E084EA93E00E9496025BC091E0ED
:1011C000873509F090E090933B0354C084EA93E0A4
:1011D0000E941E0360936603709367038093680305
:1011E0009093690347C084EA93E00E941E036093D2
:1011F00074037093750380937603909377033AC0DA
:1012000084EA93E00E94C20D609346037093470303
:1012100080934803909349032DC091E081330CF4EF
:1012200090E09093B60326C084EA93E00E94C20D3A
:101230006093900370939103809392039093930330
:1012400019C084EA93E00E941E0360939E0370938A
:101250009F038093A0039093A1030CC084EA93E0C2
:101260000E941E0360938203709383038093840320
:10127000909385030091B9031091BA0301151105EC
:1012800051F1E091B903F091BA0366A177A1F80199
:1012900086A197A10E94C110892BE9F4F80120A52D
:1012A00031A58091B40390E082179307A4F028172A
:1012B000390739F440E150E064EA73E0C8010E9464
:1012C000D110F80102A513A5D9CF892B21F01092D6
:1012D000BA031092B90380E001C081E09091B40399
:1012E0009F5F9093B4031092B50391E0CA3209F066
:1012F00090E09093A303882309F47ECD21C010923F
:10130000B5031092B4031092A2033092B30310926B
:10131000A3031092B60370CDEE3040F481E08E0F3F
:101320008093B503F0E0EC55FC4FC0838091A3039C
:10133000811162CD8091A203C827C093A2035CCD26
:1013400080911E03882309F463C08CE391E00E941E
:10135000AC0410921F0360912203709123038091CB
:101360002403909125030E94110F28E23BE64EE6EC
:101370005EE40E94700E2B013C016091200370918D
:10138000210380E090E00E94110F9B01AC01C3019A
:10139000B2010E94FF0D209126032111905846E0D2
:1013A0000E94AE048AE491E00E944B048DE491E037
:1013B0000E94AC0410921F036091290370912A03CC
:1013C00080912B0390912C030E94110F28E23BE6A1
:1013D0004EE65EE40E94700E2B013C0160912703F3
:1013E0007091280380E090E00E94110F9B01AC01F6
:1013F000C301B2010E94FF0D20912D0321119058CD
:1014000046E00E94AE048AE491E00E944B0404C0CE
:101410008BE591E00E945D04809178038823E1F0E0
:101420008CE691E00E94AC041092790360917E03F7
:1014300070917F0380918003909181030E94130F2C
:1014400020E030E048EC52E40E94700E42E00E943E
:10145000AE048AE791E002C082E891E00E945D0458
:1014600080915C03882311F183E991E00E94AC0430
:1014700010925D0360916203709163038091640335
:10148000909165030E94130F26E53EE04DEE5FE369
:101490000E94C80F20E030E048EC52E40E94700E39
:1014A00042E00E94AE0481EA91E002C087EA91E046
:1014B0000E945D0480914E03882309F4A1C085EB4E
:1014C00091E00E94AC0410924F0360915003709120
:1014D0005103809152039091530320E432E44FE092
:1014E00050E00E945E102A3020F483EC91E00E94CC
:1014F000AC0410924F03609150037091510380919E
:1015000052039091530320E432E44FE050E00E94F4
:101510005E10CA01B9017727882799274AE00E94FF
:101520006B0485EC91E00E94AC0410924F03609133
:101530005003709151038091520390915303A50180
:1015400094010E945E10CA01B901A70196010E9490
:101550005E106A3020F483EC91E00E94AC0410929B
:101560004F03609150037091510380915203909109
:101570005303A50194010E945E10CA01B901A7019D
:1015800096010E945E104AE00E946B0485EC91E097
:101590000E94AC0410924F0360915003709151036C
:1015A0008091520390915303A70196010E945E100F
:1015B000CA01B901A70196010E945E106A3020F4A9
:1015C00083EC91E00E94AC0410924F0360915003B1
:1015D000709151038091520390915303A70196019A
:1015E0000E945E10CA01B901A70196010E945E1017
:1015F0004AE00E946B048AE491E00E944B0404C01C
:1016000087EC91E00E945D0480914003882309F4F7
:1016100081C084ED91E00E94AC041092410360917E
:101620004203709143038091440390914503A501C7
:1016300094010E945E102A3020F483EC91E00E9415
:10164000AC04109241036091420370914303809176
:10165000440390914503A50194010E945E10CA01C4
:10166000B9017727882799274AE00E946B0482EE08
:1016700091E00E94AC04109241036091420370918A
:1016800043038091440390914503A70196010E9472
:101690005E10CA01B901A70196010E945E106A306E
:1016A00020F483EC91E00E94AC041092410360911D
:1016B0004203709143038091440390914503A70135
:1016C00096010E945E10CA01B901A70196010E940D
:1016D0005E104AE00E946B0482EE91E00E94AC042E
:1016E000109241036091420370914303809144033F
:1016F00090914503A70196010E945E106053784FB8
:1017000080E090E04AE00E946B048AE491E00E944D
:101710004B0404C084EE91E00E945D048091860336
:101720008823B1F081EF91E00E94AC04109287030E
:1017300060918C0370918D0380918E0390918F0343
:101740004AE00E946B048AE491E00E944B0454CB6F
:101750008FEF91E00E945D044FCB0E94B8014CCB0B
:1017600086E191E0909300038093FF0280916002F4
:10177000909161028F5F924071F4E0911203F091B9
:1017800013039081809114038095892380831092A4
:10179000610210926002089590E0FC01E654FF4F50
:1017A0002491FC01E050FF4F3491FC01E451FF4FC4
:1017B000E491EE2309F43CC0222339F1233091F067
:1017C00038F42130A9F0223001F584B58F7D12C0A4
:1017D000273091F02830A1F02430B9F480918000B6
:1017E0008F7D03C0809180008F77809380000DC033
:1017F00084B58F7784BD09C08091B0008F7703C016
:101800008091B0008F7D8093B000F0E0EE0FFF1F5D
:10181000EE51FF4FA591B4919FB7F894611104C0A8
:101820008C913095382302C0EC913E2B3C939FBFA6
:101830000895CF93DF93109265021092640288EEB0
:1018400093E0A0E0B0E08093660290936702A093DB
:101850006802B093690224E031E030936302209380
:10186000620225EC30E030936F0220936E0224EC8C
:1018700030E0309371022093700220EC30E030931E
:1018800073022093720221EC30E0309375022093B2
:10189000740222EC30E0309377022093760226EC3B
:1018A00030E0309379022093780210927B021092FC
:1018B0007C0210927D0210927E0210921E03109202
:1018C0001F03109221031092200310922203109202
:1018D00023031092240310922503109226031092E2
:1018E0002803109227031092290310922A031092C2
:1018F0002B0310922C0310922D0310922F031092A1
:101900002E03109230031092310310923203109282
:101910003303109234031092360310923503109261
:101920003703109238031092390310923A03109241
:101930003B03109240031092410310924203109215
:101940004303109244031092450310924E031092E9
:101950004F031092500310925103109252031092B1
:10196000530310925C0310925D0310926203109275
:101970006303109264031092650310926A0310923D
:101980006B03109270031092710310927203109205
:101990007303109278031092790310927E031092D1
:1019A0007F0310928003109281031092860310929D
:1019B000870310928C0310928D0310928E03109265
:1019C0008F03109294031092950310929A03109231
:1019D0009B0310929C0310929D031092A2031092FD
:1019E000A30322E02093B3031092B4031092B50333
:1019F0001092B6031092B8031092B7031092BA0374
:101A00001092B9031092BB031092BC031092BD0355
:101A10001092BE031092BF031092C0031092C10334
:101A20001092C2031092C3031092C4031092C50314
:101A30001092C6031092C7031092C8031092C903F4
:101A40001092CA031092A403109202031092010391
:101A50008093030390930403A0930503B0930603BC
:101A600086E191E0909300038093FF0210921603A9
:101A700010921503109218031092170310921A0374
:101A80001092190310921C0310921B0360911D0306
:101A90006E7F6D7F60931D036695617081E068279E
:101AA00083E00E94CC0BE3E0F1E02491EFEEF0E064
:101AB0008491882399F090E0880F991FFC01E852E7
:101AC000FF4FA591B491FC01EE51FF4F8591949188
:101AD0008FB7F894EC91E22BEC938FBFE3E0F1E049
:101AE000E491E0930F03EFEEF0E0E491F0E0EE0F0D
:101AF000FF1FEE51FF4F85919491909311038093B6
:101B00001003E4E0F1E02491E0EFF0E08491882319
:101B1000C1F090E0880F991FFC01E852FF4FC5917A
:101B2000D491FC01EE51FF4FA591B4919FB7F89469
:101B30008881E22FE0958E2388838C91E823EC93B3
:101B40009FBF80911D0381FD04C061E084E00E947D
:101B5000CC0B84E080930B03E4E0F1E0E491E093AC
:101B60000C03E0EFF0E0E491F0E0EE0FFF1FE25332
:101B7000FF4F8591949190930E0380930D03DF9115
:101B8000CF9108951F93FC0199278827BC01E89401
:101B900011911032E9F3193010F01E30C8F31B32E6
:101BA00051F01D3249F4689406C00E94E90D610F9E
:101BB000711D811D911D119110531A30B0F33EF427
:101BC00090958095709561957F4F8F4F9F4F1F9196
:101BD0000895592F482F372F262F660F771F881FFC
:101BE000991F660F771F881F991F620F731F841F2D
:101BF000951F660F771F881F991F08955058BB27A0
:101C0000AA270E94160E0C94890F0E947B0F38F0B1
:101C10000E94820F20F039F49F3F19F426F40C94AF
:101C2000780F0EF4E095E7FB0C94720FE92F0E94F9
:101C30009A0F58F3BA17620773078407950720F0C5
:101C400079F4A6F50C94BC0F0EF4E0950B2EBA2F88
:101C5000A02D0B01B90190010C01CA01A0011124B2
:101C6000FF27591B99F0593F50F4503E68F11A165E
:101C7000F040A22F232F342F4427585FF3CF4695EF
:101C800037952795A795F0405395C9F77EF41F1611
:101C9000BA0B620B730B840BBAF09150A1F0FF0FDB
:101CA000BB1F661F771F881FC2F70EC0BA0F621FC7
:101CB000731F841F48F4879577956795B795F795B7
:101CC0009E3F08F0B0CF9395880F08F09927EE0F4C
:101CD0009795879508950E944E0F08F481E0089526
:101CE0000E94840E0C94890F0E94820F58F00E946B
:101CF0007B0F40F029F45F3F29F00C94720F5111D3
:101D00000C94BD0F0C94780F0E949A0F68F39923DE
:101D1000B1F3552391F3951B550BBB27AA276217E7
:101D20007307840738F09F5F5F4F220F331F441FF4
:101D3000AA1FA9F335D00E2E3AF0E0E832D0915028
:101D40005040E695001CCAF72BD0FE2F29D0660F15
:101D5000771F881FBB1F261737074807AB07B0E858
:101D600009F0BB0B802DBF01FF2793585F4F3AF05E
:101D70009E3F510578F00C94720F0C94BD0F5F3F9D
:101D8000E4F3983ED4F3869577956795B795F795E4
:101D90009F5FC9F7880F911D9695879597F90895CC
:101DA000E1E0660F771F881FBB1F62177307840768
:101DB000BA0720F0621B730B840BBA0BEE1F88F777
:101DC000E09508950E94A20F88F09F5798F0B92FD0
:101DD0009927B751B0F0E1F0660F771F881F991F60
:101DE0001AF0BA95C9F714C0B13091F00E94BC0F37
:101DF000B1E008950C94BC0F672F782F8827B85F47
:101E000039F0B93FCCF3869577956795B395D9F7B7
:101E10003EF490958095709561957F4F8F4F9F4FC1
:101E20000895E89409C097FB3EF4909580957095CD
:101E300061957F4F8F4F9F4F9923A9F0F92F96E916
:101E4000BB279395F695879577956795B795F1118B
:101E5000F8CFFAF4BB0F11F460FF1BC06F5F7F4F28
:101E60008F4F9F4F16C0882311F096E911C077233A
:101E700021F09EE8872F762F05C0662371F096E843
:101E8000862F70E060E02AF09A95660F771F881F12
:101E9000DAF7880F9695879597F90895990F0008B6
:101EA000550FAA0BE0E8FEEF16161706E807F9072C
:101EB000C0F012161306E407F50798F0621B730BC7
:101EC000840B950B39F40A2661F0232B242B252B48
:101ED00021F408950A2609F4A140A6958FEF811DEB
:101EE000811D089597F99F6780E870E060E008958C
:101EF0009FEF80EC089500240A9416161706180622
:101F00000906089500240A941216130614060506FD
:101F10000895092E0394000C11F4882352F0BB0F8E
:101F200040F4BF2B11F460FF04C06F5F7F4F8F4FF1
:101F30009F4F089557FD9058440F551F59F05F3F2C
:101F400071F04795880F97FB991F61F09F3F79F0DB
:101F500087950895121613061406551FF2CF46955D
:101F6000F1DF08C0161617061806991FF1CF8695DF
:101F70007105610508940895E894BB2766277727C3
:101F8000CB0197F908950E944E0F08F48FEF089542
:101F90000E94DB0F0C94890F0E947B0F38F00E9487
:101FA000820F20F0952311F00C94720F0C94780F8F
:101FB00011240C94BD0F0E949A0F70F3959FC1F3EA
:101FC000950F50E0551F629FF001729FBB27F00DE7
:101FD000B11D639FAA27F00DB11DAA1F649F66273C
:101FE000B00DA11D661F829F2227B00DA11D621F8B
:101FF000739FB00DA11D621F839FA00D611D221F45
:10200000749F3327A00D611D231F849F600D211D28
:10201000822F762F6A2F11249F5750409AF0F1F0AB
:1020200088234AF0EE0FFF1FBB1F661F771F881F14
:1020300091505040A9F79E3F510580F00C94720FCB
:102040000C94BD0F5F3FE4F3983ED4F386957795EB
:102050006795B795F795E7959F5FC1F7FE2B880FBA
:10206000911D9695879597F908950E944E0F880BBC
:10207000990B0895DB018F939F930E948610BF9167
:10208000AF91A29F800D911DA39F900DB29F900DC7
:102090001124089597FB072E16F4009407D077FDBE
:1020A00009D00E94991007FC05D03EF490958195C7
:1020B0009F4F0895709561957F4F0895A1E21A2E64
:1020C000AA1BBB1BFD010DC0AA1FBB1FEE1FFF1FDC
:1020D000A217B307E407F50720F0A21BB30BE40B2C
:1020E000F50B661F771F881F991F1A9469F7609573
:1020F0007095809590959B01AC01BD01CF0108952D
:10210000EE0FFF1F0590F491E02D09940E94AD1091
:10211000A59F900DB49F900DA49F800D911D11243B
:102120000895B7FF0C9486100E948610821B930BB3
:102130000895AA1BBB1B51E107C0AA1FBB1FA6170E
:10214000B70710F0A61BB70B881F991F5A95A9F760
:1021500080959095BC01CD010895A29FB001B39FD9
:10216000C001A39F700D811D1124911DB29F700DA0
:10217000811D1124911D089581E090E0F8940C9444
:10218000E010FB01DC018D91019080190110D9F361
:10219000990B0895FB01DC0101900D920020E1F7FD
:1021A0000895FB01DC014150504048F001900D9230
:1021B0000020C9F701C01D9241505040E0F708953A
:1021C00010E0CBE8D0E004C0FE010E948010219610
:0A21D000CC38D107C9F7F894FFCF0F
:1021DA00000000004901B600E00096011101EF007D
:1021EA00030100000000DB01B6006502DA012B02E0
:1021FA004302C2014750524D4300474E524D4300DD
:10220A00475047474100474E474741004C61746970
:10221A00747564652020203D20000D0A004C6F6E05
:10222A0067697475646520203D20004C6F63617492
:10223A00696F6E20496E76616C696400416C7469DD
:10224A00747564652020203D2000206D65746572D8
:10225A007300416C74697475646520496E76616CAB
:10226A0069640053706565642020202020203D2089
:10227A0000206B6D706800537065656420496E7646
:10228A00616C69640054696D652028474D542920A2
:10229A003A200030003A0054696D6520496E766133
:1022AA006C69640044617465202020202020203A53
:1022BA0020002F004461746520496E76616C696460
:1022CA0000536174656C6C69746573203D2000531A
:1022DA006174656C6C6974657320496E76616C69AA
:0E22EA0064006E616E00696E66006F766600BD
:107800000C94343C0C94513C0C94513C0C94513CE1
:107810000C94513C0C94513C0C94513C0C94513CB4
:107820000C94513C0C94513C0C94513C0C94513CA4
:107830000C94513C0C94513C0C94513C0C94513C94
:107840000C94513C0C94513C0C94513C0C94513C84
:107850000C94513C0C94513C0C94513C0C94513C74
:107860000C94513C0C94513C11241FBECFEFD8E036
:10787000DEBFCDBF11E0A0E0B1E0ECE9FFE702C060
:1078800005900D92A230B107D9F712E0A2E0B1E065
:1078900001C01D92AD30B107E1F70E942D3D0C945F
:1078A000CC3F0C94003C982F959595959595959582
:1078B000905D8F708A307CF0282F295A8091C0000B
:1078C00085FFFCCF9093C6008091C00085FFFCCF60
:1078D0002093C6000895282F205DF0CF982F809127
:1078E000C00085FFFCCF9093C6000895EF92FF92F1
:1078F0000F931F93EE24FF2487018091C00087FD22
:1079000017C00894E11CF11C011D111D81E4E8164B
:1079100082E4F8068FE0080780E0180770F3E09132
:107920000401F091050109958091C00087FFE9CF1E
:107930008091C6001F910F91FF90EF9008950E94D3
:10794000763C982F8091C00085FFFCCF9093C600B5
:1079500091362CF490330CF09053892F089597555D
:10796000892F08951F930E949F3C182F0E949F3CCF
:107970001295107F810F1F9108951F93182F882350
:1079800021F00E94763C1150E1F71F9108951F935A
:10799000182F0E94763C803249F0809103018F5F5E
:1079A000809303018530C1F01F9108958091C0003C
:1079B00085FFFCCF84E18093C6008091C00085FFE5
:1079C000FCCF1093C6008091C00085FFFCCF80E102
:1079D0008093C6001F910895E0910401F091050184
:1079E00009951F9108950E94763C803241F0809164
:1079F00003018F5F80930301853081F008958091AA
:107A0000C00085FFFCCF84E18093C6008091C00058
:107A100085FFFCCF80E18093C6000895E0910401CA
:107A2000F09105010995089540E951E08823A1F0FE
:107A30002D9A28EE33E0FA013197F1F721503040CA
:107A4000D1F72D9828EE33E0FA013197F1F7215064
:107A50003040D1F7815061F708953F924F925F9285
:107A60006F927F928F929F92AF92BF92CF92DF924E
:107A7000EF92FF920F931F93CF93DF93000080E16B
:107A80008093C4001092C50088E18093C10086E015
:107A90008093C2005098589A259A81E00E94143D24
:107AA00024E1F22E9EE1E92E85E9D82E0FE0C02ECA
:107AB00010E1B12EAA24A394B1E49B2EA6E58A2E50
:107AC000F2E57F2EE0E26E2E79E4572E63E5462E36
:107AD00050E5352E0E94763C8033B1F18133B9F107
:107AE000803409F46FC0813409F476C0823409F41B
:107AF00085C0853409F488C0803531F1823521F1A3
:107B0000813511F1853509F485C0863509F48DC0BC
:107B1000843609F496C0843709F403C1853709F423
:107B200072C1863709F466C0809103018F5F80932C
:107B30000301853079F6E0910401F0910501099582
:107B40000E94763C803351F60E94F33CC3CF0E94E2
:107B5000763C803249F78091C00085FFFCCFF092DF
:107B6000C6008091C00085FFFCCF9092C600809136
:107B7000C00085FFFCCF8092C6008091C00085FFC9
:107B8000FCCF7092C6008091C00085FFFCCF609250
:107B9000C6008091C00085FFFCCF5092C600809146
:107BA000C00085FFFCCF4092C6008091C00085FFD9
:107BB000FCCF3092C6008091C00085FFFCCFB09210
:107BC000C60088CF0E94763C863808F4BDCF0E945C
:107BD000763C0E94F33C7ECF0E94763C803809F4CC
:107BE0009CC0813809F40BC1823809F43CC1883942
:107BF00009F48FC080E00E94C73C6CCF84E10E94F2
:107C0000BD3C0E94F33C66CF85E00E94BD3C0E94D3
:107C1000F33C60CF0E94763C809306010E94763C44
:107C2000809307010E94F33C55CF0E94763C80333D
:107C300009F41DC183E00E94BD3C80E00E94C73C66
:107C400049CF0E94763C809309020E94763C809343
:107C5000080280910C028E7F80930C020E94763C79
:107C6000853409F415C18091080290910902892B8D
:107C700089F000E010E00E94763CF801E85FFE4FDA
:107C800080830F5F1F4F80910802909109020817AF
:107C9000190788F30E94763C803209F045CF809125
:107CA0000C0280FF01C16091060170910701660F0F
:107CB000771F7093070160930601A0910802B091AD
:107CC00009021097C9F0E8E0F1E09B01AD014E0F09
:107CD0005F1FF999FECF32BD21BD819180BDFA9A17
:107CE000F99A2F5F3F4FE417F50799F76A0F7B1F4B
:107CF00070930701609306018091C00085FFFCCF5F
:107D0000F092C6008091C00085FFFCCFB092C60003
:107D1000E1CE83E00E94C73CDDCE82E00E94C73CFA
:107D2000D9CE0E94763C809309020E94763C8093D3
:107D300008028091060190910701880F991F909386
:107D40000701809306010E94763C853409F4A6C0A1
:107D500080910C028E7F80930C020E94763C8032D0
:107D600009F0B8CE8091C00085FFFCCFF092C6002C
:107D7000609108027091090261157105B9F140E046
:107D800050E080910C02A82FA170B82FB27011C0E2
:107D9000BB2309F45CC0E0910601F0910701319624
:107DA000F0930701E09306014F5F5F4F46175707B7
:107DB000E8F4AA2369F3F999FECF209106013091E6
:107DC000070132BD21BDF89A90B58091C00085FFB2
:107DD000FCCF9093C6002F5F3F4F30930701209355
:107DE00006014F5F5F4F4617570718F38091C00099
:107DF00085FDE5CE8091C00085FFF8CFE0CE81E023
:107E00000E94C73C67CE0E94763C803209F08CCE3F
:107E10008091C00085FFFCCFF092C6008091C00029
:107E200085FFFCCFE092C6008091C00085FFFCCFAB
:107E3000D092C6008091C00085FFFCCFC092C600E2
:107E40008091C00085FFFCCFB092C60043CEE09188
:107E50000601F091070194918091C00085FFFCCF4D
:107E60009093C6009CCF80E10E94C73C33CE0E9415
:107E7000763C0E94763C182F0E94763C112309F430
:107E800083C0113009F484C08FE00E94C73C22CE29
:107E900080910C02816080930C02E5CE80910C02EF
:107EA000816080930C0259CF809107018823880F4D
:107EB000880B8A2180930B02809106019091070123
:107EC000880F991F90930701809306018091080203
:107ED00080FF09C080910802909109020196909359
:107EE000090280930802F894F999FECF1127E091D6
:107EF0000601F0910701C8E0D1E08091080290915D
:107F00000902103091F40091570001700130D9F34B
:107F100003E000935700E89500915700017001308D
:107F2000D9F301E100935700E89509901990009169
:107F3000570001700130D9F301E000935700E89534
:107F40001395103498F011270091570001700130FB
:107F5000D9F305E000935700E895009157000170B0
:107F60000130D9F301E100935700E895329602976A
:107F700009F0C7CF103011F00296E5CF112480919F
:107F8000C00085FFB9CEBCCE8EE10E94C73CA2CD19
:0C7F900085E90E94C73C9ECDF894FFCF0D
:027F9C00800063
:040000030000780081
:00000001FF
